{
  "contractName": "ExpiringMarket",
  "abi": [
    {
      "constant": false,
      "inputs": [
        {
          "name": "pay_gem",
          "type": "address"
        },
        {
          "name": "buy_gem",
          "type": "address"
        },
        {
          "name": "pay_amt",
          "type": "uint128"
        },
        {
          "name": "buy_amt",
          "type": "uint128"
        }
      ],
      "name": "make",
      "outputs": [
        {
          "name": "id",
          "type": "bytes32"
        }
      ],
      "payable": false,
      "stateMutability": "nonpayable",
      "type": "function"
    },
    {
      "constant": false,
      "inputs": [
        {
          "name": "owner_",
          "type": "address"
        }
      ],
      "name": "setOwner",
      "outputs": [],
      "payable": false,
      "stateMutability": "nonpayable",
      "type": "function"
    },
    {
      "constant": true,
      "inputs": [],
      "name": "last_offer_id",
      "outputs": [
        {
          "name": "",
          "type": "uint256"
        }
      ],
      "payable": false,
      "stateMutability": "view",
      "type": "function"
    },
    {
      "constant": false,
      "inputs": [
        {
          "name": "id",
          "type": "uint256"
        }
      ],
      "name": "cancel",
      "outputs": [
        {
          "name": "success",
          "type": "bool"
        }
      ],
      "payable": false,
      "stateMutability": "nonpayable",
      "type": "function"
    },
    {
      "constant": true,
      "inputs": [
        {
          "name": "id",
          "type": "uint256"
        }
      ],
      "name": "getOffer",
      "outputs": [
        {
          "name": "",
          "type": "uint256"
        },
        {
          "name": "",
          "type": "address"
        },
        {
          "name": "",
          "type": "uint256"
        },
        {
          "name": "",
          "type": "address"
        }
      ],
      "payable": false,
      "stateMutability": "view",
      "type": "function"
    },
    {
      "constant": false,
      "inputs": [
        {
          "name": "id",
          "type": "bytes32"
        },
        {
          "name": "maxTakeAmount",
          "type": "uint128"
        }
      ],
      "name": "take",
      "outputs": [],
      "payable": false,
      "stateMutability": "nonpayable",
      "type": "function"
    },
    {
      "constant": true,
      "inputs": [],
      "name": "close_time",
      "outputs": [
        {
          "name": "",
          "type": "uint64"
        }
      ],
      "payable": false,
      "stateMutability": "view",
      "type": "function"
    },
    {
      "constant": true,
      "inputs": [],
      "name": "stopped",
      "outputs": [
        {
          "name": "",
          "type": "bool"
        }
      ],
      "payable": false,
      "stateMutability": "view",
      "type": "function"
    },
    {
      "constant": false,
      "inputs": [
        {
          "name": "id_",
          "type": "bytes32"
        }
      ],
      "name": "bump",
      "outputs": [],
      "payable": false,
      "stateMutability": "nonpayable",
      "type": "function"
    },
    {
      "constant": false,
      "inputs": [
        {
          "name": "authority_",
          "type": "address"
        }
      ],
      "name": "setAuthority",
      "outputs": [],
      "payable": false,
      "stateMutability": "nonpayable",
      "type": "function"
    },
    {
      "constant": true,
      "inputs": [
        {
          "name": "id",
          "type": "uint256"
        }
      ],
      "name": "isActive",
      "outputs": [
        {
          "name": "active",
          "type": "bool"
        }
      ],
      "payable": false,
      "stateMutability": "view",
      "type": "function"
    },
    {
      "constant": true,
      "inputs": [
        {
          "name": "",
          "type": "uint256"
        }
      ],
      "name": "offers",
      "outputs": [
        {
          "name": "pay_amt",
          "type": "uint256"
        },
        {
          "name": "pay_gem",
          "type": "address"
        },
        {
          "name": "buy_amt",
          "type": "uint256"
        },
        {
          "name": "buy_gem",
          "type": "address"
        },
        {
          "name": "owner",
          "type": "address"
        },
        {
          "name": "timestamp",
          "type": "uint64"
        }
      ],
      "payable": false,
      "stateMutability": "view",
      "type": "function"
    },
    {
      "constant": true,
      "inputs": [],
      "name": "owner",
      "outputs": [
        {
          "name": "",
          "type": "address"
        }
      ],
      "payable": false,
      "stateMutability": "view",
      "type": "function"
    },
    {
      "constant": false,
      "inputs": [
        {
          "name": "id",
          "type": "bytes32"
        }
      ],
      "name": "kill",
      "outputs": [],
      "payable": false,
      "stateMutability": "nonpayable",
      "type": "function"
    },
    {
      "constant": true,
      "inputs": [],
      "name": "authority",
      "outputs": [
        {
          "name": "",
          "type": "address"
        }
      ],
      "payable": false,
      "stateMutability": "view",
      "type": "function"
    },
    {
      "constant": true,
      "inputs": [
        {
          "name": "id",
          "type": "uint256"
        }
      ],
      "name": "getOwner",
      "outputs": [
        {
          "name": "owner",
          "type": "address"
        }
      ],
      "payable": false,
      "stateMutability": "view",
      "type": "function"
    },
    {
      "constant": false,
      "inputs": [
        {
          "name": "id",
          "type": "uint256"
        },
        {
          "name": "quantity",
          "type": "uint256"
        }
      ],
      "name": "buy",
      "outputs": [
        {
          "name": "",
          "type": "bool"
        }
      ],
      "payable": false,
      "stateMutability": "nonpayable",
      "type": "function"
    },
    {
      "constant": false,
      "inputs": [
        {
          "name": "pay_amt",
          "type": "uint256"
        },
        {
          "name": "pay_gem",
          "type": "address"
        },
        {
          "name": "buy_amt",
          "type": "uint256"
        },
        {
          "name": "buy_gem",
          "type": "address"
        }
      ],
      "name": "offer",
      "outputs": [
        {
          "name": "id",
          "type": "uint256"
        }
      ],
      "payable": false,
      "stateMutability": "nonpayable",
      "type": "function"
    },
    {
      "inputs": [
        {
          "name": "_close_time",
          "type": "uint64"
        }
      ],
      "payable": false,
      "stateMutability": "nonpayable",
      "type": "constructor"
    },
    {
      "anonymous": false,
      "inputs": [
        {
          "indexed": false,
          "name": "id",
          "type": "uint256"
        }
      ],
      "name": "LogItemUpdate",
      "type": "event"
    },
    {
      "anonymous": false,
      "inputs": [
        {
          "indexed": false,
          "name": "pay_amt",
          "type": "uint256"
        },
        {
          "indexed": true,
          "name": "pay_gem",
          "type": "address"
        },
        {
          "indexed": false,
          "name": "buy_amt",
          "type": "uint256"
        },
        {
          "indexed": true,
          "name": "buy_gem",
          "type": "address"
        }
      ],
      "name": "LogTrade",
      "type": "event"
    },
    {
      "anonymous": false,
      "inputs": [
        {
          "indexed": true,
          "name": "id",
          "type": "bytes32"
        },
        {
          "indexed": true,
          "name": "pair",
          "type": "bytes32"
        },
        {
          "indexed": true,
          "name": "maker",
          "type": "address"
        },
        {
          "indexed": false,
          "name": "pay_gem",
          "type": "address"
        },
        {
          "indexed": false,
          "name": "buy_gem",
          "type": "address"
        },
        {
          "indexed": false,
          "name": "pay_amt",
          "type": "uint128"
        },
        {
          "indexed": false,
          "name": "buy_amt",
          "type": "uint128"
        },
        {
          "indexed": false,
          "name": "timestamp",
          "type": "uint64"
        }
      ],
      "name": "LogMake",
      "type": "event"
    },
    {
      "anonymous": false,
      "inputs": [
        {
          "indexed": true,
          "name": "id",
          "type": "bytes32"
        },
        {
          "indexed": true,
          "name": "pair",
          "type": "bytes32"
        },
        {
          "indexed": true,
          "name": "maker",
          "type": "address"
        },
        {
          "indexed": false,
          "name": "pay_gem",
          "type": "address"
        },
        {
          "indexed": false,
          "name": "buy_gem",
          "type": "address"
        },
        {
          "indexed": false,
          "name": "pay_amt",
          "type": "uint128"
        },
        {
          "indexed": false,
          "name": "buy_amt",
          "type": "uint128"
        },
        {
          "indexed": false,
          "name": "timestamp",
          "type": "uint64"
        }
      ],
      "name": "LogBump",
      "type": "event"
    },
    {
      "anonymous": false,
      "inputs": [
        {
          "indexed": false,
          "name": "id",
          "type": "bytes32"
        },
        {
          "indexed": true,
          "name": "pair",
          "type": "bytes32"
        },
        {
          "indexed": true,
          "name": "maker",
          "type": "address"
        },
        {
          "indexed": false,
          "name": "pay_gem",
          "type": "address"
        },
        {
          "indexed": false,
          "name": "buy_gem",
          "type": "address"
        },
        {
          "indexed": true,
          "name": "taker",
          "type": "address"
        },
        {
          "indexed": false,
          "name": "take_amt",
          "type": "uint128"
        },
        {
          "indexed": false,
          "name": "give_amt",
          "type": "uint128"
        },
        {
          "indexed": false,
          "name": "timestamp",
          "type": "uint64"
        }
      ],
      "name": "LogTake",
      "type": "event"
    },
    {
      "anonymous": false,
      "inputs": [
        {
          "indexed": true,
          "name": "id",
          "type": "bytes32"
        },
        {
          "indexed": true,
          "name": "pair",
          "type": "bytes32"
        },
        {
          "indexed": true,
          "name": "maker",
          "type": "address"
        },
        {
          "indexed": false,
          "name": "pay_gem",
          "type": "address"
        },
        {
          "indexed": false,
          "name": "buy_gem",
          "type": "address"
        },
        {
          "indexed": false,
          "name": "pay_amt",
          "type": "uint128"
        },
        {
          "indexed": false,
          "name": "buy_amt",
          "type": "uint128"
        },
        {
          "indexed": false,
          "name": "timestamp",
          "type": "uint64"
        }
      ],
      "name": "LogKill",
      "type": "event"
    },
    {
      "anonymous": false,
      "inputs": [
        {
          "indexed": true,
          "name": "authority",
          "type": "address"
        }
      ],
      "name": "LogSetAuthority",
      "type": "event"
    },
    {
      "anonymous": false,
      "inputs": [
        {
          "indexed": true,
          "name": "owner",
          "type": "address"
        }
      ],
      "name": "LogSetOwner",
      "type": "event"
    },
    {
      "constant": true,
      "inputs": [],
      "name": "isClosed",
      "outputs": [
        {
          "name": "closed",
          "type": "bool"
        }
      ],
      "payable": false,
      "stateMutability": "view",
      "type": "function"
    },
    {
      "constant": true,
      "inputs": [],
      "name": "getTime",
      "outputs": [
        {
          "name": "",
          "type": "uint64"
        }
      ],
      "payable": false,
      "stateMutability": "view",
      "type": "function"
    },
    {
      "constant": false,
      "inputs": [],
      "name": "stop",
      "outputs": [],
      "payable": false,
      "stateMutability": "nonpayable",
      "type": "function"
    }
  ],
  "bytecode": "0x608060405234801561001057600080fd5b50604051602080611614833981016040819052905160018054600160a060020a03191633600160a060020a031690811790915590917fce241d7ca1f669fee44b6fc00b8eba2df3bb514eed0f6f668f8f89096e81ed9490600090a26004805467ffffffffffffffff9092166101000268ffffffffffffffff0019909216919091179055611572806100a26000396000f3006080604052600436106101035763ffffffff60e060020a60003504166307da68f58114610108578063093f51981461011f57806313af40351461016a578063232cae0b1461018b57806340e58ee5146101a05780634579268a146101cc5780634960645514610215578063557ed1ba146102395780636377ebca1461026b57806375f12b2114610280578063779997c3146102955780637a9e5e4b146102ad57806382afd23b146102ce5780638a72ea6a146102e65780638da5cb5b14610348578063b4f9b6c814610379578063bf7e214f14610391578063c2b6b58c146103a6578063c41a360a146103bb578063d6febde8146103d3578063f09ea2a6146103ee575b600080fd5b34801561011457600080fd5b5061011d61041c565b005b34801561012b57600080fd5b50610158600160a060020a03600435811690602435166001608060020a036044358116906064351661045e565b60408051918252519081900360200190f35b34801561017657600080fd5b5061011d600160a060020a0360043516610487565b34801561019757600080fd5b50610158610505565b3480156101ac57600080fd5b506101b860043561050b565b604080519115158252519081900360200190f35b3480156101d857600080fd5b506101e46004356108be565b60408051948552600160a060020a039384166020860152848101929092529091166060830152519081900360800190f35b34801561022157600080fd5b5061011d6004356001608060020a03602435166108f4565b34801561024557600080fd5b5061024e610916565b6040805167ffffffffffffffff9092168252519081900360200190f35b34801561027757600080fd5b5061024e61091a565b34801561028c57600080fd5b506101b861092f565b3480156102a157600080fd5b5061011d600435610945565b3480156102b957600080fd5b5061011d600160a060020a0360043516610a45565b3480156102da57600080fd5b506101b8600435610abf565b3480156102f257600080fd5b506102fe600435610ae6565b60408051968752600160a060020a039586166020880152868101949094529184166060860152909216608084015267ffffffffffffffff90911660a0830152519081900360c00190f35b34801561035457600080fd5b5061035d610b38565b60408051600160a060020a039092168252519081900360200190f35b34801561038557600080fd5b5061011d600435610b47565b34801561039d57600080fd5b5061035d610b5e565b3480156103b257600080fd5b506101b8610b6d565b3480156103c757600080fd5b5061035d600435610bb4565b3480156103df57600080fd5b506101b8600435602435610bd2565b3480156103fa57600080fd5b50610158600435600160a060020a036024358116906044359060643516611076565b61043233600035600160e060020a0319166113b7565b151561043d57600080fd5b6004805469ff00000000000000000019166901000000000000000000179055565b600061047e836001608060020a031686846001608060020a031687611076565b95945050505050565b61049d33600035600160e060020a0319166113b7565b15156104a857600080fd5b6001805473ffffffffffffffffffffffffffffffffffffffff1916600160a060020a0383811691909117918290556040519116907fce241d7ca1f669fee44b6fc00b8eba2df3bb514eed0f6f668f8f89096e81ed9490600090a250565b60025481565b6000610515611511565b8261051f81610abf565b151561052a57600080fd5b61053381610bb4565b600160a060020a031633600160a060020a031614806105555750610555610b6d565b151561056057600080fd5b60045460ff161561057057600080fd5b6001600460006101000a81548160ff0219169083151502179055506003600085815260200190815260200160002060c06040519081016040529081600082015481526020016001820160009054906101000a9004600160a060020a0316600160a060020a0316600160a060020a03168152602001600282015481526020016003820160009054906101000a9004600160a060020a0316600160a060020a0316600160a060020a031681526020016004820160009054906101000a9004600160a060020a0316600160a060020a0316600160a060020a031681526020016004820160149054906101000a900467ffffffffffffffff1667ffffffffffffffff1667ffffffffffffffff16815250509150600360008581526020019081526020016000206000808201600090556001820160006101000a815490600160a060020a03021916905560028201600090556003820160006101000a815490600160a060020a0302191690556004820160006101000a815490600160a060020a0302191690556004820160146101000a81549067ffffffffffffffff021916905550508160200151600160a060020a031663a9059cbb836080015184600001516040518363ffffffff1660e060020a0281526004018083600160a060020a0316600160a060020a0316815260200182815260200192505050602060405180830381600087803b15801561077d57600080fd5b505af1158015610791573d6000803e3d6000fd5b505050506040513d60208110156107a757600080fd5b505115156107b457600080fd5b6040805185815290517fa2c251311b1a7a475913900a2a73dc9789a21b04bc737e050bbc506dd4eb34889181900360200190a16080808301516020808501805160608088018051604080516c01000000000000000000000000600160a060020a039687168102825292861690920260148301528051918290036028018220955192518b51828d01519487168452908616978301979097526001608060020a0396871682820152959091169181019190915267ffffffffffffffff4216958101959095529151919092169287917f9577941d28fff863bfbee4694a6a4a56fb09e169619189d2eaa750b5b48199959181900360a00190a450506004805460ff19169055506001919050565b600090815260036020819052604090912080546001820154600283015492909301549093600160a060020a039384169390911690565b610907826001608060020a038316610bd2565b151561091257600080fd5b5050565b4290565b600454610100900467ffffffffffffffff1681565b6004546901000000000000000000900460ff1681565b60008161095181610abf565b151561095c57600080fd5b610964610b6d565b1561096e57600080fd5b6000838152600360208181526040808420600481015460018201548286015484516c01000000000000000000000000600160a060020a03938416818102835292841690810260148301528651918290036028018220998d90529787528454600290950154918152958601969096526001608060020a039283168585015291909416606084015267ffffffffffffffff60a060020a850416608084015290518796509216929185917f70a14c213064359ede031fd2a1645a11ce2ec825ffe6ab5cfb5b160c3ef4d0a2919081900360a00190a4505050565b610a5b33600035600160e060020a0319166113b7565b1515610a6657600080fd5b6000805473ffffffffffffffffffffffffffffffffffffffff1916600160a060020a03838116919091178083556040519116917f1abebea81bfa2637f28358c371278fb15ede7ea8dd28d2e03b112ff6d936ada491a250565b60009081526003602052604081206004015460a060020a900467ffffffffffffffff161190565b6003602081905260009182526040909120805460018201546002830154938301546004909301549193600160a060020a039182169390929082169181169060a060020a900467ffffffffffffffff1686565b600154600160a060020a031681565b610b508161050b565b1515610b5b57600080fd5b50565b600054600160a060020a031681565b6004546000906901000000000000000000900460ff1680610baf5750600454610100900467ffffffffffffffff16610ba3610916565b67ffffffffffffffff16115b905090565b600090815260036020526040902060040154600160a060020a031690565b6000610bdc611511565b600084610be881610abf565b1515610bf357600080fd5b610bfb610b6d565b15610c0557600080fd5b60045460ff1615610c1557600080fd5b60048054600160ff1990911681178255600088815260036020818152604092839020835160c081018552815480825295820154600160a060020a03908116938201939093526002820154948101859052928101548216606084015290940154938416608082015260a060020a90930467ffffffffffffffff1660a084015291945090610ca29087906114cb565b811515610cab57fe5b0491506001608060020a0382168214610cc357600080fd5b6001608060020a0385168514610cd857600080fd5b841580610ce3575081155b80610cee5750825185115b80610cfc5750826040015182115b15610d0a5760009350611063565b8251610d1690866114f3565b6000878152600360205260409081902091909155830151610d3790836114f3565b6000878152600360209081526040808320600201939093556060860151608087015184517f23b872dd000000000000000000000000000000000000000000000000000000008152600160a060020a03338116600483015291821660248201526044810188905294519116936323b872dd9360648083019493928390030190829087803b158015610dc657600080fd5b505af1158015610dda573d6000803e3d6000fd5b505050506040513d6020811015610df057600080fd5b50511515610dfd57600080fd5b8260200151600160a060020a031663a9059cbb33876040518363ffffffff1660e060020a0281526004018083600160a060020a0316600160a060020a0316815260200182815260200192505050602060405180830381600087803b158015610e6457600080fd5b505af1158015610e78573d6000803e3d6000fd5b505050506040513d6020811015610e8e57600080fd5b50511515610e9b57600080fd5b6040805187815290517fa2c251311b1a7a475913900a2a73dc9789a21b04bc737e050bbc506dd4eb34889181900360200190a16080808401516020808601805160608089018051604080516c01000000000000000000000000600160a060020a039687168102825292861690920260148301528051918290036028018220955192518f835292851696820196909652908316818601526001608060020a03808d16928201929092529088169581019590955267ffffffffffffffff421660a0860152915133831694939092169290917f3383e3357c77fd2e3a4b30deea81179bc70a795d053d14d5b7f2f01d0fd4596f9181900360c00190a48260600151600160a060020a03168360200151600160a060020a03167f819e390338feffe95e2de57172d6faf337853dfd15c7a09a32d76f7fd24438758785604051808381526020018281526020019250505060405180910390a3600086815260036020526040902054151561105e576000868152600360208190526040822082815560018101805473ffffffffffffffffffffffffffffffffffffffff19908116909155600282019390935590810180549092169091556004018054600160e060020a03191690555b600193505b50506004805460ff191690555092915050565b6000611080611511565b611088610b6d565b1561109257600080fd5b60045460ff16156110a257600080fd5b6004805460ff191660011790556001608060020a03861686146110c457600080fd5b6001608060020a03841684146110d957600080fd5b600086116110e657600080fd5b600160a060020a03851615156110fb57600080fd5b6000841161110857600080fd5b600160a060020a038316151561111d57600080fd5b600160a060020a03858116908416141561113657600080fd5b858152600160a060020a0380861660208301526040820185905283811660608301523316608082015267ffffffffffffffff421660a0820152611177611503565b60008181526003602081815260408084208651815582870151600182018054600160a060020a0392831673ffffffffffffffffffffffffffffffffffffffff1991821617909155838901516002840155606089015195830180549683169682169690961790955560808801516004928301805460a08b015167ffffffffffffffff1660a060020a027fffffffff0000000000000000ffffffffffffffffffffffffffffffffffffffff9385169190981617919091169590951790945581517f23b872dd000000000000000000000000000000000000000000000000000000008152338516918101919091523084166024820152604481018c90529051949650918916936323b872dd936064808501948390030190829087803b15801561129c57600080fd5b505af11580156112b0573d6000803e3d6000fd5b505050506040513d60208110156112c657600080fd5b505115156112d357600080fd5b6040805183815290517fa2c251311b1a7a475913900a2a73dc9789a21b04bc737e050bbc506dd4eb34889181900360200190a160408051600160a060020a038781166c0100000000000000000000000081810284528783169081026014850152845160289481900394909401842091845260208401526001608060020a038a811684860152881660608401524267ffffffffffffffff166080840152925133909116929185917f773ff502687307abfa024ac9f62f9752a0d210dac2ffd9a29e38e12e2ea82c829160a0908290030190a4506004805460ff19169055949350505050565b600030600160a060020a031683600160a060020a031614156113db575060016114c5565b600154600160a060020a03848116911614156113f9575060016114c5565b600054600160a060020a03161515611413575060006114c5565b60008054604080517fb7009613000000000000000000000000000000000000000000000000000000008152600160a060020a0387811660048301523081166024830152600160e060020a0319871660448301529151919092169263b700961392606480820193602093909283900390910190829087803b15801561149657600080fd5b505af11580156114aa573d6000803e3d6000fd5b505050506040513d60208110156114c057600080fd5b505190505b92915050565b60008115806114e85750508082028282828115156114e557fe5b04145b15156114c557600080fd5b808203828111156114c557600080fd5b600280546001019081905590565b6040805160c081018252600080825260208201819052918101829052606081018290526080810182905260a0810191909152905600a165627a7a72305820a4bf770a090b302616a8d6e9e7e2415b10b9b9f1371688f21614879e4b39ca550029",
  "source": "/// expiring_market.sol\n\n//\n// This program is free software: you can redistribute it and/or modify\n// it under the terms of the GNU Affero General Public License as published by\n// the Free Software Foundation, either version 3 of the License, or\n// (at your option) any later version.\n//\n// This program is distributed in the hope that it will be useful,\n// but WITHOUT ANY WARRANTY; without even the implied warranty of\n// MERCHANTABILITY or FITNESS FOR A PARTICULAR PURPOSE.  See the\n// GNU Affero General Public License for more details.\n//\n// You should have received a copy of the GNU Affero General Public License\n// along with this program.  If not, see <https://www.gnu.org/licenses/>.\n\npragma solidity ^0.4.18;\n\nimport \"./auth.sol\";\nimport \"./simple_market.sol\";\n\n// Simple Market with a market lifetime. When the close_time has been reached,\n// offers can only be cancelled (offer and buy will throw).\n\ncontract ExpiringMarket is DSAuth, SimpleMarket {\n    uint64 public close_time;\n    bool public stopped;\n\n    // after close_time has been reached, no new offers are allowed\n    modifier can_offer {\n        require(!isClosed());\n        _;\n    }\n\n    // after close, no new buys are allowed\n    modifier can_buy(uint id) {\n        require(isActive(id));\n        require(!isClosed());\n        _;\n    }\n\n    // after close, anyone can cancel an offer\n    modifier can_cancel(uint id) {\n        require(isActive(id));\n        require((msg.sender == getOwner(id)) || isClosed());\n        _;\n    }\n\n    function ExpiringMarket(uint64 _close_time)\n        public\n    {\n        close_time = _close_time;\n    }\n\n    function isClosed() public constant returns (bool closed) {\n        return stopped || getTime() > close_time;\n    }\n\n    function getTime() public constant returns (uint64) {\n        return uint64(now);\n    }\n\n    function stop() public auth {\n        stopped = true;\n    }\n}\n",
  "sourcePath": "/Users/ram/dev/clients/nayms/maker-otc/contracts/expiring_market.sol",
  "compiler": {
    "name": "solc",
    "version": "0.4.22+commit.4cb486ee.Emscripten.clang"
  },
  "schemaVersion": "3.0.16",
  "updatedAt": "2019-10-31T15:45:29.122Z",
  "devdoc": {
    "methods": {}
  },
  "userdoc": {
    "methods": {}
  }
}