{
  "contractName": "SimpleMarket",
  "abi": [
    {
      "constant": true,
      "inputs": [],
      "name": "last_offer_id",
      "outputs": [
        {
          "name": "",
          "type": "uint256"
        }
      ],
      "payable": false,
      "stateMutability": "view",
      "type": "function"
    },
    {
      "constant": true,
      "inputs": [
        {
          "name": "",
          "type": "uint256"
        }
      ],
      "name": "offers",
      "outputs": [
        {
          "name": "pay_amt",
          "type": "uint256"
        },
        {
          "name": "pay_gem",
          "type": "address"
        },
        {
          "name": "buy_amt",
          "type": "uint256"
        },
        {
          "name": "buy_gem",
          "type": "address"
        },
        {
          "name": "owner",
          "type": "address"
        },
        {
          "name": "timestamp",
          "type": "uint64"
        }
      ],
      "payable": false,
      "stateMutability": "view",
      "type": "function"
    },
    {
      "anonymous": false,
      "inputs": [
        {
          "indexed": false,
          "name": "id",
          "type": "uint256"
        }
      ],
      "name": "LogItemUpdate",
      "type": "event"
    },
    {
      "anonymous": false,
      "inputs": [
        {
          "indexed": false,
          "name": "pay_amt",
          "type": "uint256"
        },
        {
          "indexed": true,
          "name": "pay_gem",
          "type": "address"
        },
        {
          "indexed": false,
          "name": "buy_amt",
          "type": "uint256"
        },
        {
          "indexed": true,
          "name": "buy_gem",
          "type": "address"
        }
      ],
      "name": "LogTrade",
      "type": "event"
    },
    {
      "anonymous": false,
      "inputs": [
        {
          "indexed": true,
          "name": "id",
          "type": "bytes32"
        },
        {
          "indexed": true,
          "name": "pair",
          "type": "bytes32"
        },
        {
          "indexed": true,
          "name": "maker",
          "type": "address"
        },
        {
          "indexed": false,
          "name": "pay_gem",
          "type": "address"
        },
        {
          "indexed": false,
          "name": "buy_gem",
          "type": "address"
        },
        {
          "indexed": false,
          "name": "pay_amt",
          "type": "uint128"
        },
        {
          "indexed": false,
          "name": "buy_amt",
          "type": "uint128"
        },
        {
          "indexed": false,
          "name": "timestamp",
          "type": "uint64"
        }
      ],
      "name": "LogMake",
      "type": "event"
    },
    {
      "anonymous": false,
      "inputs": [
        {
          "indexed": true,
          "name": "id",
          "type": "bytes32"
        },
        {
          "indexed": true,
          "name": "pair",
          "type": "bytes32"
        },
        {
          "indexed": true,
          "name": "maker",
          "type": "address"
        },
        {
          "indexed": false,
          "name": "pay_gem",
          "type": "address"
        },
        {
          "indexed": false,
          "name": "buy_gem",
          "type": "address"
        },
        {
          "indexed": false,
          "name": "pay_amt",
          "type": "uint128"
        },
        {
          "indexed": false,
          "name": "buy_amt",
          "type": "uint128"
        },
        {
          "indexed": false,
          "name": "timestamp",
          "type": "uint64"
        }
      ],
      "name": "LogBump",
      "type": "event"
    },
    {
      "anonymous": false,
      "inputs": [
        {
          "indexed": false,
          "name": "id",
          "type": "bytes32"
        },
        {
          "indexed": true,
          "name": "pair",
          "type": "bytes32"
        },
        {
          "indexed": true,
          "name": "maker",
          "type": "address"
        },
        {
          "indexed": false,
          "name": "pay_gem",
          "type": "address"
        },
        {
          "indexed": false,
          "name": "buy_gem",
          "type": "address"
        },
        {
          "indexed": true,
          "name": "taker",
          "type": "address"
        },
        {
          "indexed": false,
          "name": "take_amt",
          "type": "uint128"
        },
        {
          "indexed": false,
          "name": "give_amt",
          "type": "uint128"
        },
        {
          "indexed": false,
          "name": "timestamp",
          "type": "uint64"
        }
      ],
      "name": "LogTake",
      "type": "event"
    },
    {
      "anonymous": false,
      "inputs": [
        {
          "indexed": true,
          "name": "id",
          "type": "bytes32"
        },
        {
          "indexed": true,
          "name": "pair",
          "type": "bytes32"
        },
        {
          "indexed": true,
          "name": "maker",
          "type": "address"
        },
        {
          "indexed": false,
          "name": "pay_gem",
          "type": "address"
        },
        {
          "indexed": false,
          "name": "buy_gem",
          "type": "address"
        },
        {
          "indexed": false,
          "name": "pay_amt",
          "type": "uint128"
        },
        {
          "indexed": false,
          "name": "buy_amt",
          "type": "uint128"
        },
        {
          "indexed": false,
          "name": "timestamp",
          "type": "uint64"
        }
      ],
      "name": "LogKill",
      "type": "event"
    },
    {
      "constant": true,
      "inputs": [
        {
          "name": "id",
          "type": "uint256"
        }
      ],
      "name": "isActive",
      "outputs": [
        {
          "name": "active",
          "type": "bool"
        }
      ],
      "payable": false,
      "stateMutability": "view",
      "type": "function"
    },
    {
      "constant": true,
      "inputs": [
        {
          "name": "id",
          "type": "uint256"
        }
      ],
      "name": "getOwner",
      "outputs": [
        {
          "name": "owner",
          "type": "address"
        }
      ],
      "payable": false,
      "stateMutability": "view",
      "type": "function"
    },
    {
      "constant": true,
      "inputs": [
        {
          "name": "id",
          "type": "uint256"
        }
      ],
      "name": "getOffer",
      "outputs": [
        {
          "name": "",
          "type": "uint256"
        },
        {
          "name": "",
          "type": "address"
        },
        {
          "name": "",
          "type": "uint256"
        },
        {
          "name": "",
          "type": "address"
        }
      ],
      "payable": false,
      "stateMutability": "view",
      "type": "function"
    },
    {
      "constant": false,
      "inputs": [
        {
          "name": "id_",
          "type": "bytes32"
        }
      ],
      "name": "bump",
      "outputs": [],
      "payable": false,
      "stateMutability": "nonpayable",
      "type": "function"
    },
    {
      "constant": false,
      "inputs": [
        {
          "name": "id",
          "type": "uint256"
        },
        {
          "name": "quantity",
          "type": "uint256"
        }
      ],
      "name": "buy",
      "outputs": [
        {
          "name": "",
          "type": "bool"
        }
      ],
      "payable": false,
      "stateMutability": "nonpayable",
      "type": "function"
    },
    {
      "constant": false,
      "inputs": [
        {
          "name": "id",
          "type": "uint256"
        }
      ],
      "name": "cancel",
      "outputs": [
        {
          "name": "success",
          "type": "bool"
        }
      ],
      "payable": false,
      "stateMutability": "nonpayable",
      "type": "function"
    },
    {
      "constant": false,
      "inputs": [
        {
          "name": "id",
          "type": "bytes32"
        }
      ],
      "name": "kill",
      "outputs": [],
      "payable": false,
      "stateMutability": "nonpayable",
      "type": "function"
    },
    {
      "constant": false,
      "inputs": [
        {
          "name": "pay_gem",
          "type": "address"
        },
        {
          "name": "buy_gem",
          "type": "address"
        },
        {
          "name": "pay_amt",
          "type": "uint128"
        },
        {
          "name": "buy_amt",
          "type": "uint128"
        }
      ],
      "name": "make",
      "outputs": [
        {
          "name": "id",
          "type": "bytes32"
        }
      ],
      "payable": false,
      "stateMutability": "nonpayable",
      "type": "function"
    },
    {
      "constant": false,
      "inputs": [
        {
          "name": "pay_amt",
          "type": "uint256"
        },
        {
          "name": "pay_gem",
          "type": "address"
        },
        {
          "name": "buy_amt",
          "type": "uint256"
        },
        {
          "name": "buy_gem",
          "type": "address"
        }
      ],
      "name": "offer",
      "outputs": [
        {
          "name": "id",
          "type": "uint256"
        }
      ],
      "payable": false,
      "stateMutability": "nonpayable",
      "type": "function"
    },
    {
      "constant": false,
      "inputs": [
        {
          "name": "id",
          "type": "bytes32"
        },
        {
          "name": "maxTakeAmount",
          "type": "uint128"
        }
      ],
      "name": "take",
      "outputs": [],
      "payable": false,
      "stateMutability": "nonpayable",
      "type": "function"
    }
  ],
  "bytecode": "0x608060405234801561001057600080fd5b5061110d806100206000396000f3006080604052600436106100a05763ffffffff60e060020a600035041663093f519881146100a5578063232cae0b146100f057806340e58ee5146101055780634579268a14610131578063496064551461017a578063779997c3146101a057806382afd23b146101b85780638a72ea6a146101d0578063b4f9b6c814610232578063c41a360a1461024a578063d6febde81461027e578063f09ea2a614610299575b600080fd5b3480156100b157600080fd5b506100de600160a060020a03600435811690602435166001608060020a03604435811690606435166102c7565b60408051918252519081900360200190f35b3480156100fc57600080fd5b506100de6102f0565b34801561011157600080fd5b5061011d6004356102f6565b604080519115158252519081900360200190f35b34801561013d57600080fd5b50610149600435610699565b60408051948552600160a060020a039384166020860152848101929092529091166060830152519081900360800190f35b34801561018657600080fd5b5061019e6004356001608060020a03602435166106d0565b005b3480156101ac57600080fd5b5061019e6004356106f2565b3480156101c457600080fd5b5061011d6004356107e0565b3480156101dc57600080fd5b506101e8600435610807565b60408051968752600160a060020a039586166020880152868101949094529184166060860152909216608084015267ffffffffffffffff90911660a0830152519081900360c00190f35b34801561023e57600080fd5b5061019e600435610857565b34801561025657600080fd5b5061026260043561086e565b60408051600160a060020a039092168252519081900360200190f35b34801561028a57600080fd5b5061011d60043560243561088c565b3480156102a557600080fd5b506100de600435600160a060020a036024358116906044359060643516610d33565b60006102e7836001608060020a031686846001608060020a031687610d33565b95945050505050565b60005481565b60006103006110ac565b8261030a816107e0565b151561031557600080fd5b33600160a060020a03166103288261086e565b600160a060020a03161461033b57600080fd5b60025460ff161561034b57600080fd5b6001600260006101000a81548160ff0219169083151502179055506001600085815260200190815260200160002060c06040519081016040529081600082015481526020016001820160009054906101000a9004600160a060020a0316600160a060020a0316600160a060020a03168152602001600282015481526020016003820160009054906101000a9004600160a060020a0316600160a060020a0316600160a060020a031681526020016004820160009054906101000a9004600160a060020a0316600160a060020a0316600160a060020a031681526020016004820160149054906101000a900467ffffffffffffffff1667ffffffffffffffff1667ffffffffffffffff16815250509150600160008581526020019081526020016000206000808201600090556001820160006101000a815490600160a060020a03021916905560028201600090556003820160006101000a815490600160a060020a0302191690556004820160006101000a815490600160a060020a0302191690556004820160146101000a81549067ffffffffffffffff021916905550508160200151600160a060020a031663a9059cbb836080015184600001516040518363ffffffff1660e060020a0281526004018083600160a060020a0316600160a060020a0316815260200182815260200192505050602060405180830381600087803b15801561055857600080fd5b505af115801561056c573d6000803e3d6000fd5b505050506040513d602081101561058257600080fd5b5051151561058f57600080fd5b6040805185815290517fa2c251311b1a7a475913900a2a73dc9789a21b04bc737e050bbc506dd4eb34889181900360200190a16080808301516020808501805160608088018051604080516c01000000000000000000000000600160a060020a039687168102825292861690920260148301528051918290036028018220955192518b51828d01519487168452908616978301979097526001608060020a0396871682820152959091169181019190915267ffffffffffffffff4216958101959095529151919092169287917f9577941d28fff863bfbee4694a6a4a56fb09e169619189d2eaa750b5b48199959181900360a00190a450506002805460ff19169055506001919050565b600090815260016020819052604090912080549181015460028201546003909201549293600160a060020a03918216939190911690565b6106e3826001608060020a03831661088c565b15156106ee57600080fd5b5050565b6000816106fe816107e0565b151561070957600080fd5b6000838152600160208181526040808420600481015481850154600383015484516c01000000000000000000000000600160a060020a03938416818102835292841690810260148301528651918290036028018220998d90529787528454600290950154918152958601969096526001608060020a039283168585015291909416606084015267ffffffffffffffff60a060020a850416608084015290518796509216929185917f70a14c213064359ede031fd2a1645a11ce2ec825ffe6ab5cfb5b160c3ef4d0a2919081900360a00190a4505050565b60009081526001602052604081206004015460a060020a900467ffffffffffffffff161190565b600160208190526000918252604090912080549181015460028201546003830154600490930154600160a060020a039283169391929182169181169060a060020a900467ffffffffffffffff1686565b610860816102f6565b151561086b57600080fd5b50565b600090815260016020526040902060040154600160a060020a031690565b60006108966110ac565b6000846108a2816107e0565b15156108ad57600080fd5b60025460ff16156108bd57600080fd5b6002805460ff19166001908117825560008881526020828152604091829020825160c081018452815480825294820154600160a060020a03908116938201939093529481015492850183905260038101548216606086015260040154908116608085015267ffffffffffffffff60a060020a9091041660a084015291945090610947908790611060565b81151561095057fe5b0491506001608060020a038216821461096857600080fd5b6001608060020a038516851461097d57600080fd5b841580610988575081155b806109935750825185115b806109a15750826040015182115b156109af5760009350610d20565b82516109bb908661108e565b60008781526001602052604090819020919091558301516109dc908361108e565b6000878152600160209081526040808320600201939093556060860151608087015184517f23b872dd000000000000000000000000000000000000000000000000000000008152600160a060020a03338116600483015291821660248201526044810188905294519116936323b872dd9360648083019493928390030190829087803b158015610a6b57600080fd5b505af1158015610a7f573d6000803e3d6000fd5b505050506040513d6020811015610a9557600080fd5b50511515610aa257600080fd5b8260200151600160a060020a031663a9059cbb33876040518363ffffffff1660e060020a0281526004018083600160a060020a0316600160a060020a0316815260200182815260200192505050602060405180830381600087803b158015610b0957600080fd5b505af1158015610b1d573d6000803e3d6000fd5b505050506040513d6020811015610b3357600080fd5b50511515610b4057600080fd5b6040805187815290517fa2c251311b1a7a475913900a2a73dc9789a21b04bc737e050bbc506dd4eb34889181900360200190a16080808401516020808601805160608089018051604080516c01000000000000000000000000600160a060020a039687168102825292861690920260148301528051918290036028018220955192518f835292851696820196909652908316818601526001608060020a03808d16928201929092529088169581019590955267ffffffffffffffff421660a0860152915133831694939092169290917f3383e3357c77fd2e3a4b30deea81179bc70a795d053d14d5b7f2f01d0fd4596f9181900360c00190a48260600151600160a060020a03168360200151600160a060020a03167f819e390338feffe95e2de57172d6faf337853dfd15c7a09a32d76f7fd24438758785604051808381526020018281526020019250505060405180910390a36000868152600160205260409020541515610d1b5760008681526001602081905260408220828155908101805473ffffffffffffffffffffffffffffffffffffffff19908116909155600282019290925560038101805490921690915560040180547fffffffff000000000000000000000000000000000000000000000000000000001690555b600193505b50506002805460ff191690555092915050565b6000610d3d6110ac565b60025460ff1615610d4d57600080fd5b6002805460ff191660011790556001608060020a0386168614610d6f57600080fd5b6001608060020a0384168414610d8457600080fd5b60008611610d9157600080fd5b600160a060020a0385161515610da657600080fd5b60008411610db357600080fd5b600160a060020a0383161515610dc857600080fd5b600160a060020a038581169084161415610de157600080fd5b858152600160a060020a0380861660208301526040820185905283811660608301523316608082015267ffffffffffffffff421660a0820152610e2261109e565b600081815260016020818152604080842086518155828701519381018054600160a060020a0395861673ffffffffffffffffffffffffffffffffffffffff1991821617909155828801516002830155606088015160038301805491871691831691909117905560808801516004928301805460a08b015167ffffffffffffffff1660a060020a027fffffffff0000000000000000ffffffffffffffffffffffffffffffffffffffff93891691909416179190911691909117905581517f23b872dd000000000000000000000000000000000000000000000000000000008152338516918101919091523084166024820152604481018c90529051949650918916936323b872dd936064808501948390030190829087803b158015610f4557600080fd5b505af1158015610f59573d6000803e3d6000fd5b505050506040513d6020811015610f6f57600080fd5b50511515610f7c57600080fd5b6040805183815290517fa2c251311b1a7a475913900a2a73dc9789a21b04bc737e050bbc506dd4eb34889181900360200190a160408051600160a060020a038781166c0100000000000000000000000081810284528783169081026014850152845160289481900394909401842091845260208401526001608060020a038a811684860152881660608401524267ffffffffffffffff166080840152925133909116929185917f773ff502687307abfa024ac9f62f9752a0d210dac2ffd9a29e38e12e2ea82c829160a0908290030190a4506002805460ff19169055949350505050565b600081158061107d57505080820282828281151561107a57fe5b04145b151561108857600080fd5b92915050565b8082038281111561108857600080fd5b600080546001019081905590565b6040805160c081018252600080825260208201819052918101829052606081018290526080810182905260a0810191909152905600a165627a7a72305820c09e91ff7d4448682210cac88d65d021b3d2c8f85833c64c476171c7597d275c0029",
  "source": "/// simple_market.sol\n\n//\n// This program is free software: you can redistribute it and/or modify\n// it under the terms of the GNU Affero General Public License as published by\n// the Free Software Foundation, either version 3 of the License, or\n// (at your option) any later version.\n//\n// This program is distributed in the hope that it will be useful,\n// but WITHOUT ANY WARRANTY; without even the implied warranty of\n// MERCHANTABILITY or FITNESS FOR A PARTICULAR PURPOSE.  See the\n// GNU Affero General Public License for more details.\n//\n// You should have received a copy of the GNU Affero General Public License\n// along with this program.  If not, see <https://www.gnu.org/licenses/>.\n\npragma solidity ^0.4.18;\n\nimport \"./math.sol\";\nimport \"./erc20.sol\";\n\ncontract EventfulMarket {\n    event LogItemUpdate(uint id);\n    event LogTrade(uint pay_amt, address indexed pay_gem,\n                   uint buy_amt, address indexed buy_gem);\n\n    event LogMake(\n        bytes32  indexed  id,\n        bytes32  indexed  pair,\n        address  indexed  maker,\n        ERC20             pay_gem,\n        ERC20             buy_gem,\n        uint128           pay_amt,\n        uint128           buy_amt,\n        uint64            timestamp\n    );\n\n    event LogBump(\n        bytes32  indexed  id,\n        bytes32  indexed  pair,\n        address  indexed  maker,\n        ERC20             pay_gem,\n        ERC20             buy_gem,\n        uint128           pay_amt,\n        uint128           buy_amt,\n        uint64            timestamp\n    );\n\n    event LogTake(\n        bytes32           id,\n        bytes32  indexed  pair,\n        address  indexed  maker,\n        ERC20             pay_gem,\n        ERC20             buy_gem,\n        address  indexed  taker,\n        uint128           take_amt,\n        uint128           give_amt,\n        uint64            timestamp\n    );\n\n    event LogKill(\n        bytes32  indexed  id,\n        bytes32  indexed  pair,\n        address  indexed  maker,\n        ERC20             pay_gem,\n        ERC20             buy_gem,\n        uint128           pay_amt,\n        uint128           buy_amt,\n        uint64            timestamp\n    );\n}\n\ncontract SimpleMarket is EventfulMarket, DSMath {\n\n    uint public last_offer_id;\n\n    mapping (uint => OfferInfo) public offers;\n\n    bool locked;\n\n    struct OfferInfo {\n        uint     pay_amt;\n        ERC20    pay_gem;\n        uint     buy_amt;\n        ERC20    buy_gem;\n        address  owner;\n        uint64   timestamp;\n    }\n\n    modifier can_buy(uint id) {\n        require(isActive(id));\n        _;\n    }\n\n    modifier can_cancel(uint id) {\n        require(isActive(id));\n        require(getOwner(id) == msg.sender);\n        _;\n    }\n\n    modifier can_offer {\n        _;\n    }\n\n    modifier synchronized {\n        require(!locked);\n        locked = true;\n        _;\n        locked = false;\n    }\n\n    function isActive(uint id) public constant returns (bool active) {\n        return offers[id].timestamp > 0;\n    }\n\n    function getOwner(uint id) public constant returns (address owner) {\n        return offers[id].owner;\n    }\n\n    function getOffer(uint id) public constant returns (uint, ERC20, uint, ERC20) {\n      var offer = offers[id];\n      return (offer.pay_amt, offer.pay_gem,\n              offer.buy_amt, offer.buy_gem);\n    }\n\n    // ---- Public entrypoints ---- //\n\n    function bump(bytes32 id_)\n        public\n        can_buy(uint256(id_))\n    {\n        var id = uint256(id_);\n        LogBump(\n            id_,\n            keccak256(offers[id].pay_gem, offers[id].buy_gem),\n            offers[id].owner,\n            offers[id].pay_gem,\n            offers[id].buy_gem,\n            uint128(offers[id].pay_amt),\n            uint128(offers[id].buy_amt),\n            offers[id].timestamp\n        );\n    }\n\n    // Accept given `quantity` of an offer. Transfers funds from caller to\n    // offer maker, and from market to caller.\n    function buy(uint id, uint quantity)\n        public\n        can_buy(id)\n        synchronized\n        returns (bool)\n    {\n        OfferInfo memory offer = offers[id];\n        uint spend = mul(quantity, offer.buy_amt) / offer.pay_amt;\n\n        require(uint128(spend) == spend);\n        require(uint128(quantity) == quantity);\n\n        // For backwards semantic compatibility.\n        if (quantity == 0 || spend == 0 ||\n            quantity > offer.pay_amt || spend > offer.buy_amt)\n        {\n            return false;\n        }\n\n        offers[id].pay_amt = sub(offer.pay_amt, quantity);\n        offers[id].buy_amt = sub(offer.buy_amt, spend);\n        require( offer.buy_gem.transferFrom(msg.sender, offer.owner, spend) );\n        require( offer.pay_gem.transfer(msg.sender, quantity) );\n\n        LogItemUpdate(id);\n        LogTake(\n            bytes32(id),\n            keccak256(offer.pay_gem, offer.buy_gem),\n            offer.owner,\n            offer.pay_gem,\n            offer.buy_gem,\n            msg.sender,\n            uint128(quantity),\n            uint128(spend),\n            uint64(now)\n        );\n        LogTrade(quantity, offer.pay_gem, spend, offer.buy_gem);\n\n        if (offers[id].pay_amt == 0) {\n          delete offers[id];\n        }\n\n        return true;\n    }\n\n    // Cancel an offer. Refunds offer maker.\n    function cancel(uint id)\n        public\n        can_cancel(id)\n        synchronized\n        returns (bool success)\n    {\n        // read-only offer. Modify an offer by directly accessing offers[id]\n        OfferInfo memory offer = offers[id];\n        delete offers[id];\n\n        require( offer.pay_gem.transfer(offer.owner, offer.pay_amt) );\n\n        LogItemUpdate(id);\n        LogKill(\n            bytes32(id),\n            keccak256(offer.pay_gem, offer.buy_gem),\n            offer.owner,\n            offer.pay_gem,\n            offer.buy_gem,\n            uint128(offer.pay_amt),\n            uint128(offer.buy_amt),\n            uint64(now)\n        );\n\n        success = true;\n    }\n\n    function kill(bytes32 id)\n        public\n    {\n        require(cancel(uint256(id)));\n    }\n\n    function make(\n        ERC20    pay_gem,\n        ERC20    buy_gem,\n        uint128  pay_amt,\n        uint128  buy_amt\n    )\n        public\n        returns (bytes32 id)\n    {\n        return bytes32(offer(pay_amt, pay_gem, buy_amt, buy_gem));\n    }\n\n    // Make a new offer. Takes funds from the caller into market escrow.\n    function offer(uint pay_amt, ERC20 pay_gem, uint buy_amt, ERC20 buy_gem)\n        public\n        can_offer\n        synchronized\n        returns (uint id)\n    {\n        require(uint128(pay_amt) == pay_amt);\n        require(uint128(buy_amt) == buy_amt);\n        require(pay_amt > 0);\n        require(pay_gem != ERC20(0x0));\n        require(buy_amt > 0);\n        require(buy_gem != ERC20(0x0));\n        require(pay_gem != buy_gem);\n\n        OfferInfo memory info;\n        info.pay_amt = pay_amt;\n        info.pay_gem = pay_gem;\n        info.buy_amt = buy_amt;\n        info.buy_gem = buy_gem;\n        info.owner = msg.sender;\n        info.timestamp = uint64(now);\n        id = _next_id();\n        offers[id] = info;\n\n        require( pay_gem.transferFrom(msg.sender, this, pay_amt) );\n\n        LogItemUpdate(id);\n        LogMake(\n            bytes32(id),\n            keccak256(pay_gem, buy_gem),\n            msg.sender,\n            pay_gem,\n            buy_gem,\n            uint128(pay_amt),\n            uint128(buy_amt),\n            uint64(now)\n        );\n    }\n\n    function take(bytes32 id, uint128 maxTakeAmount)\n        public\n    {\n        require(buy(uint256(id), maxTakeAmount));\n    }\n\n    function _next_id()\n        internal\n        returns (uint)\n    {\n        last_offer_id++; return last_offer_id;\n    }\n}\n",
  "sourcePath": "/Users/ram/dev/clients/nayms/maker-otc/contracts/simple_market.sol",
  "compiler": {
    "name": "solc",
    "version": "0.4.22+commit.4cb486ee.Emscripten.clang"
  },
  "schemaVersion": "3.0.16",
  "updatedAt": "2019-10-31T15:45:29.222Z",
  "devdoc": {
    "methods": {}
  },
  "userdoc": {
    "methods": {}
  }
}